:100000000C94850E0C94B60E0C94B60E0C94B60E91
:100010000C94B60E0C94B60E0C94B60E0C94B60E50
:100020000C94B60E0C94B60E0C94B60E0C94B60E40
:100030000C94B60E0C94B60E0C94B60E0C94B60E30
:100040000C94B60E0C9415630C94B60E0C94B60E6C
:100050000C94B60E0C94B60E0C94F9580C947A5776
:100060000C94B60E0C9455630C94B60E0C94B60E0C
:100070000C94B60E0C94B60E0C94B60E0C94B60EF0
:100080000C94B60E0C94B60E0C94B60E0C94B60EE0
:100090000C94B60E0C94B60E0C94B60E0C94B60ED0
:1000A0000C94B60E0C94B60E0C94B60E0C94B60EC0
:1000B0000C94B60E0C94B60E0C94B60E0C94B60EB0
:1000C0000C94B60E0C94B60E0C94B60E0C94B60EA0
:1000D0000C94B60E0C94B60E0C94B60E0C94B60E90
:1000E0000C94B60E084AD73B3BCE016E84BCBFFDD4
:1000F000C12F3D6C74319ABD56833DDA3D00C77FF8
:1001000011BED9E4BB4C3E916BAAAABE0000008090
:100110003F05A84CCDB2D44EB93836A9020C50B91F
:10012000918688083CA6AAAA2ABE000000803F004B
:100130000C9467100C94190F0C942D7A0C942D0FBD
:100140000C9402100C944E100C94F50F0C94F20EBB
:100150000C94270F0C9485100C94FD0F0C942C0F0D
:100160000C9471100C94010F0C94F60E0C940B0F60
:100170000C94FA0E0C94310F0C948F100C943A10CE
:100180000C94FE0E0C94110F0C947B100C941F0F0A
:100190000C945D100C94230F0C94150F0C942810E4
:1001A0000C9416100C940C100C9430100C94EC0E53
:1001B0000C9420100C9444100C94070F4E414E499F
:1001C0004E495459494E46CDCCCC3D0AD7233C1715
:1001D000B7D13877CC2B329595E6241FB14F0A0062
:1001E0000020410000C84200401C4620BCBE4CCA52
:1001F0001B0E5AAEC59D74434F4D4D554E4943415C
:1002000054494F4E0044525952554E004552524F98
:10021000525300494E464F004543484F00656E71AA
:1002200075657565696E672022005072696E746528
:10023000722073746F707065642064756520746FCC
:10024000206572726F72732E20466978207468651B
:10025000206572726F7220616E6420757365204D27
:1002600039393920746F20726573746172742E206D
:100270002854656D706572617475726520697320AC
:1002800072657365742E20536574206974206166ED
:100290007465722072657374617274696E67290A7D
:1002A000004E6F20436865636B73756D20776974CA
:1002B00068206C696E65206E756D6265722C204CCD
:1002C000617374204C696E653A2000636865636BE6
:1002D00073756D206D69736D617463682C204C615A
:1002E0007374204C696E653A20004C696E65204E2F
:1002F000756D626572206973206E6F74204C617336
:1003000074204C696E65204E756D6265722B312CC0
:10031000204C617374204C696E653A20004D313178
:10032000300020496E76616C69642065787472755E
:100330006465722000000000C00000A0C000000042
:10034000000000964300009B430000C8432C20009F
:100350002C200050726F7465637465642050696E60
:100360000A00205A3A0020593A0020436F756E74F3
:1003700020583A0020453A00205A3A0020593A00C5
:10038000583A003A004361703A00526573656E64F2
:100390003A200020746F6F206C6F6E672065787450
:1003A000727573696F6E2070726576656E746564C0
:1003B0000A0020636F6C6420657874727573696FCE
:1003C0006E2070726576656E7465640A006275737E
:1003D000793A2070617573656420666F7220696E6A
:1003E0007075740A00627573793A2070617573656F
:1003F0006420666F7220757365720A006275737986
:100400003A2070726F63657373696E670A004B49B7
:100410004C4C2063617573656420627920746F6F42
:10042000206D75636820696E6163746976652074F8
:10043000696D65202D2063757272656E7420636F1F
:100440006D6D616E643A20002020506C616E6E65A7
:100450007242756666657242797465733A2000204F
:1004600046726565204D656D6F72793A2000436F65
:100470006D70696C65643A204F63742020322032BD
:100480003032300A00207C20417574686F723A2047
:1004900028647275636B6261722E6E6574290A003E
:1004A000323031382D30382D303100204C617374AA
:1004B00020557064617465643A2000312E312E3904
:1004C0000A004D61726C696E0020536F667477612B
:1004D00072652052657365740A0020576174636801
:1004E000646F672052657365740A002042726F77EB
:1004F0006E206F75742052657365740A002045780C
:100500007465726E616C2052657365740A00506F79
:1005100077657255700A0073746172740A005761CE
:10052000726E696E673A20486F6D696E672042751A
:100530006D702044697669736F72203C20310A0027
:100540000202040000A0400000A0400000004000A3
:1005500000974300809D430000C8436F6B004572C5
:10056000726F722077726974696E6720746F2045AC
:100570004550524F4D210A00454550524F4D206481
:1005800061746173697A65206572726F722E0A00F8
:10059000290A002062797465733B2063726320002E
:1005A00053657474696E67732053746F7265642049
:1005B0002800290A002062797465733B2063726306
:1005C00020002073746F7265642073657474696EA3
:1005D00067732072657472696576656420280020EF
:1005E0002863616C63756C6174656429210A00205D
:1005F000213D2000454550524F4D20435243206D30
:1006000069736D61746368202D202873746F72653F
:10061000642920002053697A653A2000496E646598
:10062000783A2000204D61726C696E3D563535294F
:100630000A0028454550524F4D3D00454550524F08
:100640004D2076657273696F6E206D69736D61748C
:100650006368200048617264636F64656420446568
:100660006661756C742053657474696E6773204C91
:100670006F616465640A00D0070000D00700006461
:100680000000001027000000009643000096430081
:1006900000484200002042F43DA042F43DA04296B2
:1006A000E3C7430080DE4320286D6D29002044000D
:1006B00020490020204D33303420500020440020B9
:1006C000490020204D3330312050005049442073E0
:1006D000657474696E67733A0A00205A00205900E5
:1006E00020204D323036205800486F6D65206F66EF
:1006F000667365743A0A00204500205A00205900AC
:1007000020580020540020530020204D3230352046
:10071000510020453C6D61785F655F6A65726B3E94
:100720000020583C6D61785F785F6A65726B3E208F
:10073000593C6D61785F795F6A65726B3E205A3C07
:100740006D61785F7A5F6A65726B3E0041647661C5
:100750006E6365643A20513C6D696E5F7365676DC9
:10076000656E745F74696D655F75733E20533C6D93
:10077000696E5F66656564726174653E20543C6DA8
:10078000696E5F74726176656C5F666565647261DF
:1007900074653E0020540020520020204D32303439
:1007A000205000416363656C65726174696F6E20EF
:1007B00028756E6974732F7332293A20503C707219
:1007C000696E745F616363656C3E20523C72657450
:1007D000726163745F616363656C3E20543C747244
:1007E0006176656C5F616363656C3E0A002045005D
:1007F000205A0020590020204D3230312058004D21
:100800006178696D756D20416363656C65726174B3
:10081000696F6E2028756E6974732F7332293A0AD6
:1008200000204500205A0020590020204D3230334E
:100830002058004D6178696D756D2066656564723C
:10084000617465732028756E6974732F73293A0A71
:1008500000204500205A0020590020204D39322028
:10086000580053746570732070657220756E6974DA
:100870003A0A0020204D3230302044300A00202037
:100880004D3230302044002044697361626C6564ED
:100890000A0046696C616D656E74207365747469D5
:1008A0006E67733A002020473231202020203B0021
:1008B000545249474745524544006F70656E003AAF
:1008C00020007A5F6D696E00795F6D696E00785FF8
:1008D0006D696E005265706F7274696E6720656E27
:1008E0006473746F70207374617475730A00000010
:1008F0000001000000010000800055555500000077
:10090000400033333300AAAA2A0049922400000091
:100910002000C7711C0099991900D1451700555541
:1009200015003BB113002449120011111100000001
:1009300010000F0F0F00E3380E0043790D00CCCCF0
:100940000C00C3300C00E8A20B0064210B00AAAA23
:100950000A00703D0A009DD80900427B09009224DC
:100960000900DCD308008888080010420800000055
:100970000800F0C107008787070075500700711C49
:1009800007003EEB0600A1BC060069900600666603
:100990000600703E06006118060017F4050074D1C9
:1009A00005005BB00500B290050062720500555568
:1009B000050078390500B81E0500050505004EEC58
:1009C000040087D40400A1BD040090A7040049924C
:1009D0000400C17D0400EE690400C75604004444CD
:1009E00004005C32040008210400411004000000EF
:1009F00004003FF00300F8E0030026D20300C3C365
:100A00000300CCB503003AA803000A9B0300388E0C
:100A10000300C08103009F750300D0690300505E8E
:100A200003001D53030034480300913D030033339A
:100A3000030016290300381F030097150300300C2C
:100A40000300030303000BFA020049F10200BAE8B5
:100A500002005CE002002DD802002DD0020059C82F
:100A60000200B0C0020031B90200DAB10200AAAA45
:100A70000200A0A30200BC9C0200FA9502005C8F59
:100A80000200DF88020082820200457C0200277695
:100A9000020027700200436A02007C640200D05EFC
:100AA00002003F590200C8530200FFFDFCFAF8F6AD
:100AB000F4F2F0EEECEAE9E7E5E3E1E0DEDCDAD9D6
:100AC000D7D5D4D2D0CFCDCBCAC8C7C5C3C2C0BF7B
:100AD000BDBCBAB9B7B6B4B3B2B0AFADACAAA9A8F1
:100AE000A6A5A4A2A1A09E9D9C9A9998979594933F
:100AF00092908F8E8D8B8A8988878684838281806D
:100B00007F7E7D7B7A797877767574737271706F7A
:100B10006E6D6C6B6A696867666564636261605F6D
:100B20005E5D5C5B5A595858575655545352515054
:100B3000504F4E4D4C4B4A4A494847464645444320
:100B4000424241403F3E3E3D3C3B3B3A39383837DC
:100B5000363535343332323130302F2E2E2D2C2B8A
:100B60002B2A29292827272625252423232221212A
:100B700020201F1E1E1D1C1C1B1B1A1919181817BC
:100B80001616151514131312121111100F0F0E0E45
:100B90000D0D0C0C0B0A0A090908080707060605C3
:100BA0000504040303020201000024F4D43050C3FE
:100BB0008E20C2A24017828B7011127A910D816C27
:100BC000D90AA861E108C7586607615143061E4B60
:100BD0005D05C145A7041A411104093D9803713907
:100BE00031034036DB0265339102D4305402802E4B
:100BF0001D02632CEE01752AC501B028A001102743
:100C000081018F2564012B244B01E0223401AC21AA
:100C10001F018D200D01801FFC00841EED00971D1B
:100C2000DF00B81CD200E61BC600201BBC00641A03
:100C3000B200B219A8000A19A0006A189900D117C9
:100C4000910040178B00B516840031167E00B31555
:100C500079003A157300C7146F0058146A00EE1338
:100C600066008813630025135E00C7125B006C12D8
:100C7000570015125400C111510070114F0021117D
:100C80004B00D61049008D1047004610440002105A
:100C90004200C00F4000800F3E00420F3C00060F94
:100CA0003B00CB0E3800930E37005C0E3500270E4C
:100CB0003400F30D3200C10D3100900D3000600D95
:100CC0002E00320D2D00050D2C00D90C2B00AE0C82
:100CD0002900850C29005C0C2700350C27000E0C20
:100CE0002600E80B2400C40B2400A00B23007D0B7E
:100CF00023005A0B2100390B2100180B2000F80AA1
:100D00001F00D90A1E00BB0A1E009D0A1D00800A92
:100D10001D00630A1C00470A1B002C0A1B00110A55
:100D20001A00F7091A00DD091900C4091900AB09F6
:100D30001900920917007B091800630917004C0974
:100D4000160036091600200916000A091500F508D4
:100D50001500E0081400CC081400B8081400A4081A
:100D60001400900813007D0812006B081300580847
:100D7000120046081200340811002308110012085E
:100D8000110001081100F0071000E0071000D00763
:100D90001000C0071000B0070F00A1071000910756
:100DA0000E0083070F0074070F0065070E0057073A
:100DB0000E0049070E003B070D002E070E0020070E
:100DC0000D0013070D0006070D00F9060C00ED06D7
:100DD0000D00E0060C00D4060C00C8060C00BC0692
:100DE0000C00B0060C00A4060B0099060C008D0642
:100DF0000B0082060B0077060B006C060B006106E9
:100E00000A0057060B004C060A0042060A00380684
:100E10000A002E060A0024060A001A060A00100616
:100E2000090007060A00FD050900F4050900EB05A5
:100E30000900E2050900D9050900D0050900C70528
:100E40000900BE050900B5050800AD050800A505A7
:100E500009009C050800940508008C05080084051D
:100E600008007C050800740508006C05070065058E
:100E700008005D050700560508004E0507004705F8
:100E800007004005080038050700310507002A055E
:100E90000700230507001C050600160507000F05BF
:100EA00007000805060002050700FB040600F5041C
:100EB0000700EE040600E8040600E2040700DB0475
:100EC0000600D5040600CF040600C9040600C304CA
:100ED0000600BD040600B7040600B1040500AC041A
:100EE0000600A6040600A00405009B040600950465
:100EF0000500900406008A040500850405008004AE
:100F000006007A04050075040500700405006B04F2
:100F1000050066040500610405005C040500570433
:100F20000500520405004D04050048040500430473
:100F300005003E0404003A040500350405003004B1
:100F400004002C04050027040400230405001E04EB
:100F500004001A04040016040500110404000D0422
:100F60000400090405000404040000040400FC0358
:100F70000400F8030400F4030400F0030400EC038D
:100F80000400E8030400E4030400E0030400DC03BD
:100F90000400D8030400D4030400D0030400CC03ED
:100FA0000400C8030300C503030024F404D9201B74
:100FB000C40C5C0E9804C4095F0265077101F40556
:100FC000F900FB04B30048048700C103690058031B
:100FD000550003034500BE023A008402310053026B
:100FE0002A002902250004022000E4011C00C80197
:100FF0001900AF011700980114008401130071015A
:1010000010006101100051010E0043010D00360176
:101010000B002B010B0020010B00150109000C0136
:10102000090003010800FB000800F3000800EB00C2
:101030000700E4000600DE000600D8000600D2002B
:101040000600CC000500C7000500C2000500BD0079
:101050000400B9000400B5000400B1000400AD00B4
:101060000400A9000400A5000300A20003009F00E3
:1010700004009B0003009800030095000200930009
:101080000300900003008D0002008B000300880025
:1010900002008600020084000300810002007F003D
:1010A00002007D0002007B00020079000200770050
:1010B000010076000200740002007200010071005D
:1010C00002006F0002006D0001006C0002006A0067
:1010D0000100690002006700010066000100650070
:1010E0000100640002006200010061000100600074
:1010F00001005F0002005D0001005C0001005B0078
:1011000001005A0001005900010058000100570079
:101110000100560001005500010054000100530079
:101120000000530001005200010051000100500076
:1011300001004F0001004E0000004E0001004D0074
:1011400001004C0001004B0000004B0001004A0070
:10115000010049000100480000004800010047006C
:101160000100460000004600010045000000450067
:101170000100440001004300000043000100420060
:101180000000420001004100000041000100400059
:1011900001003F0000003F0001003E0000003E0053
:1011A00001003D0000003D0001003C0000003C004B
:1011B00000003C0001003B0000003B0001003A0041
:1011C00000003A0001003900000039000100380039
:1011D0000000380000003800010037000000370030
:1011E0000100360000003600000036000100350026
:1011F000000035000000350001003400000034001C
:101200000000340001003300000033000000330010
:101210000100320000003200000032000100310005
:1012200000003100000031000100300000003000FB
:101230000000300001002F0000002F0000002F00F0
:1012400000002F0001002E0000002E0000002E00E4
:1012500001002D0000002D0000002D0000002D00D9
:1012600001002C0000002C0000002C0000002C00CD
:1012700001002B0000002B0000002B0000002B00C1
:1012800001002A0000002A0000002A0000002A00B5
:1012900001002900000029000000290000002900A9
:1012A000000029000100280000002800000028009C
:1012B000000028000000280001002700000027008F
:1012C0000000270000002700000027000100260082
:1012D0000000260000002600000026000000260076
:1012E0000100250000002500000025000000250069
:1012F000000025000000250001002400000024005B
:10130000000024000000240000002400010023004D
:101310000000230000002300000023000000230041
:101320000000230000002300010022000000220032
:101330000000220000002200000022000000220025
:101340000100210000002100000021000000210018
:101350000000210000002100000021000100200009
:1013600000002000000020000000200000002000FD
:1013700000002000000020000000200001001F00ED
:1013800000001F0000001F0000001F0000001F00E1
:1013900000001F0000001F0001001E0000001E00D2
:1013A00000001E0000001E00000039300000332540
:1013B000000087190000B00F0000DB080000BD042A
:1013C0000000740200003F0100004B642000236411
:1013D0006566696E652044454641554C545F004B37
:1013E00069200023646566696E6520444546415561
:1013F0004C545F004B70200023646566696E652065
:1014000044454641554C545F005049442041757451
:101410006F74756E652066696E69736865642120F6
:1014200050757420746865206C617374204B702C47
:10143000204B6920616E64204B6420636F6E73746F
:10144000616E74732066726F6D2062656C6F7720B9
:10145000696E746F20436F6E666967757261746937
:101460006F6E2E680A00504944204175746F747580
:101470006E65206661696C6564212074696D656FB5
:1014800075740A00453120544845524D414C205254
:10149000554E415741590042454420544845524D0C
:1014A000414C2052554E4157415900546865726D68
:1014B000616C2052756E6177617900453120486515
:1014C0006174696E67206661696C65640042656479
:1014D0002068656174696E67206661696C65640087
:1014E00048656174696E67206661696C6564005067
:1014F0004944204175746F74756E65206661696C2E
:101500006564212054656D70657261747572652023
:10151000746F6F20686967680A00204B643A200086
:10152000204B693A2000204B703A20000A20436C7F
:10153000617373696320504944200A002054753A4E
:101540002000204B753A2000206D61783A20002061
:101550006D696E3A200020643A2000206269617350
:101560003A2000504944204175746F74756E6520AF
:1015700073746172740A00504944204175746F7429
:10158000756E65206661696C656421204261642026
:101590006578747275646572206E756D6265720A25
:1015A0000007FFFFFFFFFF00010101010162656409
:1015B0000A002C2073797374656D2073746F7070DA
:1015C000656421204865617465725F49443A200072
:1015D0004265642068656174696E67206661696C44
:1015E00065640048656174696E67206661696C6551
:1015F000640045312048656174696E6720666169E1
:101600006C65640048656174696E67206661696C29
:1016100065640070012C0190012701B0012201C016
:10162000011D01F00118011002130130020E0160CA
:1016300002090190020401C002FF000003FA004009
:1016400003F5008003F000D003EB002004E60070F7
:1016500004E100E004DC004005D700C005D20040F2
:1016600006CD00D006C8008007C3003008BE00F0D9
:1016700008B900C009B400B00AAF00B00BAA00D08E
:101680000CA500000EA000500F9B00C0109600504B
:1016900012910000148C00C0158700B0178200B0B2
:1016A000197D00D01B7800001E730040206E009052
:1016B000226900F024640040275F0090295A00E06E
:1016C0002B5500102E500020304B0010324600E009
:1016D00033410090353C001037370070383200A09D
:1016E000392D00B03A2800A03B2300603C1E0010BA
:1016F0003D1900903D1400103E0F00703E0A00C0DE
:101700003E0500003F0000403FFBFF803FF6FFC06A
:101710003FF1FF453120544845524D414C20525530
:101720004E415741590042454420544845524D418D
:101730004C2052554E4157415900546865726D61B5
:101740006C2052756E617761790045312045727267
:101750003A204D415854454D50004572723A204D43
:10176000415854454D5020424544004D4158544540
:101770004D50207472696767657265640045312059
:101780004572723A204D494E54454D500045727293
:101790003A204D494E54454D5020424544004D4954
:1017A0004E54454D502074726967676572656400D8
:1017B000202F002042403A0020403A000000210043
:1017C000240027002A002D00300033000101000012
:1017D000040107010A0100002200250028002B0057
:1017E0002E003100340002010000050108010B0148
:1017F000000020002300260029002C002F003200CA
:1018000000010000030106010901050505050705A2
:1018100008080808020202020A0A0808040404046C
:101820000101010101010101030303030303030398
:10183000040707070C0C0C0C0C0C0C0C0202020227
:1018400006060606060606060B0B0B0B0B0B0B0B10
:1018500001021020200808102040102040800201C2
:1018600002010804020101020408102040808040A7
:1018700020100804020180040201804020100804A6
:101880000201080402010102040810204080010244
:1018900004081020408000000A0B02090C0D0E08FD
:1018A0000703040100000000000000000000000029
:1018B0000000000000000000000000000000000028
:1018C00000001211100000000000000000000000E5
:1018D00000000000000000000000000047322F4719
:1018E000332062616420706172616D65746572732A
:1018F0000A000000A0420000A0420000A041000039
:1019000000002569730025696D202569730025692C
:10191000682025696D202569730025696420256983
:10192000682025696D20256973002569792025695E
:1019300064202569682025696D202569730050722F
:10194000696E742074696D653A20006F66660018D0
:101950000213020C020502F70144454255473A00C2
:101960004D3131332053006F6B0020573A00205720
:101970003A00544845524D414C5F50524F544543F4
:1019800054494F4E004155544F5245504F52545FA9
:1019900053445F53544154555300454D45524745B8
:1019A0004E43595F50415253455200434153455FA6
:1019B0004C494748545F4252494748544E45535357
:1019C00000544F47474C455F4C49474854530053D8
:1019D0004F4654574152455F504F5745520042556C
:1019E000494C445F50455243454E54004C45564582
:1019F0004C494E475F44415441005A5F50524F4258
:101A000045004155544F4C4556454C005052494EA7
:101A1000545F4A4F420050524F4752455353004182
:101A200055544F5245504F52545F54454D500056F7
:101A30004F4C554D455452494300454550524F4D2A
:101A40000053455249414C5F584F4E5F584F4646F0
:101A5000004649524D574152455F4E414D453A4D22
:101A600061726C696E20312E312E392028476974DD
:101A70006875622920534F555243455F434F444593
:101A80005F55524C3A68747470733A2F2F676974BB
:101A90006875622E636F6D2F4D61726C696E466959
:101AA000726D776172652F4D61726C696E20505254
:101AB0004F544F434F4C5F56455253494F4E3A3166
:101AC0002E30204D414348494E455F545950453AC8
:101AD0003344205072696E746572204558545255D3
:101AE0004445525F434F554E543A31205555494471
:101AF0003A63656465326132662D343161322D346A
:101B00003734382D396231322D63353563363266DC
:101B100033363766660A002F2F20002054002052EB
:101B200000416363656C65726174696F6E3A205041
:101B300000000000C00000A0C000000000546F6F53
:101B4000206661722066726F6D20726566657265CF
:101B50006E636520706F696E740A00FFFFFF205A84
:101B600000205900580020204D61783A2000205A6A
:101B700000205900580020204D696E3A20004F6E19
:101B800020004F666600536F667420656E64737440
:101B90006F70733A200020466C6F773A2000000186
:101BA00036372603FFFFFF3B3C3D380EFFFFFF3F6C
:101BB0002E303E12FFFFFFFF28FF0C080907FFFF32
:101BC0001A1C18FFFF2A08440A074324221E2C4926
:101BD0006E76616C69642065787472756465720AEA
:101BE0000020643A0020693A0020703A0043290A34
:101BF0000061626C656420286D696E2074656D708B
:101C00002000436F6C64206578747275646573207E
:101C1000617265200020643A0020693A0020703A21
:101C2000004E6F2063617365206C696768740A00F9
:101C3000454550524F4D204F4B0A00416374697621
:101C4000652045787472756465723A2000496E7635
:101C5000616C69642065787472756465720A00202D
:101C60005A3A0020593A0020583A00656E6473745D
:101C70006F7073206869743A2000556E6B6E6F77D1
:101C80006E20636F6D6D616E643A2022002066697C
:101C90007273740A005A0059005800486F6D65202D
:101CA0000020746F6F206C6F6E672065787472759A
:101CB00073696F6E2070726576656E7465640A0074
:101CC00020636F6C6420657874727573696F6E2021
:101CD00070726576656E7465640A006563686F3A54
:101CE000005072696E7465722068616C7465642E50
:101CF000206B696C6C28292063616C6C6564210A17
:101D0000004572726F723A002D7A11241FBECFEF18
:101D1000D1E2DEBFCDBF00E00CBF12E0A0E0B2E038
:101D2000E4E3FCE001E00BBF02C007900D92AA3E85
:101D3000B107D9F72DE0AAEEB2E001C01D92AE3A8C
:101D4000B207E1F71EE0C5E8DEE000E006C021973B
:101D50000109802FFE010E94CF85C438D10780E0A1
:101D60000807A9F70E947F630C9418860C94000062
:101D7000FC01DB018C9120813181382798E0A90199
:101D8000220F331F57FD05C09150C9F731832083BF
:101D90000895B1E22B27B0E13B27F6CF8150823185
:101DA00008F05AC0E82FF0E08827E652F14F8F4F35
:101DB0000C94CF85FA0EFE0EEC0EF20EF60E2C0FE2
:101DC000010F070F0B0F110F150F190F1F0F230F07
:101DD0002C0F270F2D0F310F809180008F7780936C
:101DE00080000895809180008F7DF9CF80918000E0
:101DF000877FF5CF84B58F7784BD089584B58F7DB7
:101E0000FBCF8091B0008F778093B00008958091D0
:101E1000B0008F7DF9CF809190008F7780939000F4
:101E20000895809190008F7DF9CF80919000877FF9
:101E3000F5CF8091A0008F778093A00008958091C6
:101E4000A0008F7DF9CF8091A000877FF5CF809192
:101E500020018F77809320010895809120018F7D4C
:101E6000F9CF80912001877FF5CFCF93DF93282F83
:101E700030E0F901EA56F74E8491F901E05BF74E44
:101E8000D491F901E65FF74EC491CC23A1F0811102
:101E90000E94CE0EEC2FF0E0EE0FFF1FE051F84E47
:101EA000A591B491EC91ED2381E090E009F480E0FC
:101EB000DF91CF91089580E090E0FACF1F93CF9308
:101EC000DF93282F30E0F901EA56F74E8491F901AB
:101ED000E05BF74ED491F901E65FF74EC491CC2355
:101EE000A9F0162F81110E94CE0EEC2FF0E0EE0F1C
:101EF000FF1FEA52F84EA591B4918FB7F894EC9178
:101F0000111108C0D095DE23DC938FBFDF91CF91F4
:101F10001F910895DE2BF8CFCF93DF9390E0FC0163
:101F2000E05BF74E2491865F974EFC0184918823F5
:101F3000D1F090E0880F991FFC01E454F84EA59170
:101F4000B491FC01EA52F84EC591D49161110EC0D2
:101F50009FB7F8948C91E22FE0958E238C93288183
:101F6000E223E8839FBFDF91CF9108958FB7F89464
:101F7000EC91E22BEC938FBFF6CF1F93CF93DF93BF
:101F8000182FEB0161E00E948C0F209739F460E07C
:101F9000812FDF91CF911F910C945E0FCF3FD10520
:101FA00011F461E0F5CFE12FF0E0EA56F74EE4914D
:101FB000E150E23108F0B3C0F0E08827ED51F04F76
:101FC0008F4F0C94CF85F50FFD0F02100C101610DB
:101FD0008F102010281030103A1044104E105D1051
:101FE00067108F1071107B10851084B5806884BDD8
:101FF000C7BDDF91CF911F91089584B5806284BDE4
:10200000C8BDF7CF80918000806880938000D09316
:102010008900C0938800EDCF80918000806280931A
:102020008000D0938B00C0938A00E3CF8091800022
:10203000886080938000D0938D00C0938C00D9CFAE
:102040008091B00080688093B000C093B300D1CF7E
:102050008091B00080628093B000C093B400C9CF7B
:1020600080919000806880939000D0939900C093F5
:102070009800BFCF80919000806280939000D093B1
:102080009B00C0939A00B5CF8091900088608093A8
:102090009000D0939D00C0939C00ABCF8091A00096
:1020A00080688093A0008091A0008F7B8093A00027
:1020B000D093A900C093A8009CCF8091A00080621B
:1020C0008093A000D093AB00C093AA0092CF8091E0
:1020D000A00088608093A000D093AD00C093AC00B6
:1020E00088CF80912001806880932001D0932901BE
:1020F000C09328017ECF80912001806280932001CF
:10210000D0932B01C0932A0174CF80912001886065
:1021100080932001D0932D01C0932C016ACFC03849
:10212000D1050CF03ECF33CF3FB7F8948091B70480
:102130009091B804A091B904B091BA0426B5A89BB7
:1021400005C02F3F19F00196A11DB11D3FBFBA2F49
:10215000A92F982F8827BC01CD01620F711D811D09
:10216000911D42E0660F771F881F991F4A95D1F78E
:1021700008958F929F92AF92BF92CF92DF92EF928B
:10218000FF926B017C010E9494104B015C01C11411
:10219000D104E104F104B9F00E949410681979099E
:1021A0008A099B09683E73408105910580F321E00F
:1021B000C21AD108E108F10888EE880E83E0981E63
:1021C000A11CB11CE4CFFF90EF90DF90CF90BF90A7
:1021D000AF909F908F9008952FB7F8946091B304BB
:1021E0007091B4048091B5049091B6042FBF089506
:1021F000CF92DF92EF92FF92C090A40DD090A50DE8
:10220000E090A60DF090A70D6091A20D7091A30D26
:1022100068507109072E000C880B990B0E945E7E96
:102220009B01AC01C701B6010E94577E87FF21C008
:1022300020E030E040E050E4C701B6010E94AE82E9
:102240000E9421847093A10D6093A00D0E94EC1058
:10225000605E714B8F4F9F4F60939C0D70939D0DEF
:1022600080939E0D90939F0DFF90EF90DF90CF9005
:10227000089510929C0D10929D0D10929E0D10923B
:102280009F0DF2CF8F929F92AF92BF92CF92DF922B
:10229000EF92FF920F931F93CF93DF93B0E4A0E0F0
:1022A0006A2F70E0AB014B0F511D559547954A17AA
:1022B00011F0B41319C0E1E1F7E165917491072EB3
:1022C000000C880B990B0E945E7EDF91CF911F91CD
:1022D0000F91FF90EF90DF90CF90BF90AF909F90C5
:1022E0008F900895B42FDECF9A0121503109220F2B
:1022F000331F220F331FF901ED5EF94EE590F49084
:10230000F901E95EF94EC591D4918E159F0554F3FC
:10231000A42FC817D9070CF4C3CFF901EB5EF94E0F
:1023200005911491F901E75EF94EC590D490BC0176
:102330006E197F09072E000C880B990B0E945E7E98
:102340004B015C01B601601B710B072E000C880B62
:10235000990B0E945E7E9B01AC01C501B4010E94F5
:10236000BD7E4B015C01BE016E197F09072E000C7A
:10237000880B990B0E945E7E9B01AC01C501B401E4
:102380000E94A8836B017C01B801110F880B990B87
:102390000E945E7E9B01AC01C701B6010E94AE8225
:1023A00094CFCF92DF92EF92FF92C0900B05D09026
:1023B0000C05E0900D05F0900E05609109057091F7
:1023C0000A0566507109072E000C880B990B0E94B4
:1023D0005E7EA70196010E940E8518160CF520E07E
:1023E00030E040E050E4C701B6010E94AE820E9496
:1023F000218470938D0460938C040E94EC10605AC9
:1024000075418F4F9F4F6093880470938904809328
:102410008A0490938B04FF90EF90DF90CF90089503
:10242000109288041092890410928A0410928B04EE
:10243000F2CF8F929F92AF92BF92CF92DF92EF92A4
:10244000FF920F931F93CF93DF93B0E4A0E06A2F26
:1024500070E0AB014B0F511D55954795A41711F036
:10246000B41319C0E1E1F7E165917491072E000CF6
:10247000880B990B0E945E7EDF91CF911F910F9187
:10248000FF90EF90DF90CF90BF90AF909F908F9094
:102490000895B42FDECF9A0121503109220F331F46
:1024A000220F331FF901ED5EF94EE590F490F9012A
:1024B000E95EF94EC591D4918E159F0554F3A42F72
:1024C000C817D9070CF4C3CFF901EB5EF94E05919B
:1024D0001491F901E75EF94EC590D490BC016E19D4
:1024E0007F09072E000C880B990B0E945E7E4B0122
:1024F0005C01B601601B710B072E000C880B990B59
:102500000E945E7E9B01AC01C501B4010E94BD7EAC
:102510004B015C01BE016E197F09072E000C880B70
:10252000990B0E945E7E9B01AC01C501B4010E9423
:10253000A8836B017C01B801110F880B990B0E94D5
:102540005E7E9B01AC01C701B6010E94AE8294CFB2
:10255000AF92BF92CF92DF92EF92FF920F931F93B1
:10256000CF93DF9320E030E048E452E46091A40D83
:102570007091A50D8091A60D9091A70D0E940E85DA
:10258000C0E0181644F4E7EAF5E1E491C1E001C0C7
:10259000CC0FEA95EAF7D12CC12CA12CD0E0EE2487
:1025A000E394F12CF601EF55FA4EB490F601E9559B
:1025B000FA4E0491B7FC23C08A2D90E0002E02C091
:1025C000959587950A94E2F780FD19C0BE01002E0B
:1025D00002C0759567950A94E2F76170162F119500
:1025E000612F8B2D0E945E0F612F70E08B2D0E945A
:1025F000BD0FC70101C0880F0A95EAF7A82A8FEF1F
:10260000C81AD80A86E0C816D10461F6DF91CF91C6
:102610001F910F91FF90EF90DF90CF90BF90AF9000
:1026200008950F931F938091FF04813019F50E9444
:10263000EC1000915A0410915B0420915C043091DD
:102640005D04601B710B820B930B28EE33E040E0BE
:1026500050E00E944A826091560470915704809124
:10266000580490915904620F731F841F951F1F9186
:102670000F9108956091FB047091FC048091FD041A
:102680009091FE04D6CF1092FF0410925A0410923B
:102690005B0410925C0410925D041092FB04109293
:1026A000FC041092FD041092FE0410925604109245
:1026B0005704109258041092590408958091FF0411
:1026C0008130F1F08230C9F40E94111360935604F6
:1026D00070935704809358049093590481E0809339
:1026E000FF040E94EC1060935A0470935B04809383
:1026F0005C0490935D0481E008950E944313EECF43
:1027000080E008958091FF048150823070F410922F
:10271000FF040E94EC106093FB047093FC04809310
:10272000FD049093FE0481E0089580E008951092E6
:1027300096041092A30D1092A20D0E94F810109210
:102740000A05109209050E94D1110E9482130E946D
:10275000F8101092B0042C9810920A0510920905F6
:102760001092B1048091020180728093000108955B
:1027700090916F00292F227091FF05C090916F00FA
:102780009D7F90936F0034E0839FC0011124FC0172
:10279000E152FB4F4081518162817381865B9B4F87
:1027A000FC01408351836283738381E080934904F9
:1027B000222329F080916F00826080936F0008953A
:1027C000BC01209147043091480440914704509146
:1027D00048042417350731F481E02617370709F03C
:1027E00080E008959A01F1CFEF92FF920F931F932B
:1027F000E092F702F092F8020093F9021093FA02C5
:102800006093FB027093FC028093FD029FEFFF2711
:10281000621B730B840B30F4809570956195790B76
:10282000890B99279093F602A6E06A9F0092EA022C
:10283000512DEE277A9F500DE11D8A9FE00D509398
:10284000EB02E093EC02AFE06A9F0092EE02512DA2
:10285000EE277A9F500DE11D8A9FE00D5093EF0205
:10286000E093F002AAE06A9F0092F202512DEE2757
:102870007A9F500DE11D8A9FE00D5093F302E09383
:10288000F4021F910F91FF90EF9008958091020440
:1028900080FF26C089988FEF80930C0280910204FC
:1028A00081FF21C08F988FEF80930D0280910204E9
:1028B00082FF1CC080910B0180958270809309017A
:1028C000439A8FEF80930E028091020483FF16C01B
:1028D00016988FEF80930F0200000000000008950B
:1028E000899A81E0D9CF8F9A81E0DECF80910B0168
:1028F000827080930901439881E0E4CF169A81E0C9
:10290000E9CF8091720D9091710D891B8F7019F430
:1029100090E080E008959091A007992351F08330D2
:1029200030F48FEF890F19F08093A007F1CF109248
:10293000A0078091710D2DE5829FC00111248F5554
:10294000984FFC01208120FDE3CF2091710D2F5F76
:102950002F70209383073091710D20912607321339
:1029600004C0209183072093260708959F92AF9279
:10297000BF92CF92DF92EF92FF920F931F93CF936C
:10298000DF9300D01F921F92CDB7DEB7EAEAFAE0DC
:102990000027BB27462F572FA82FAA2341F4A52F86
:1029A000542FB85FAA2319F4A52F5527B85FA0317B
:1029B00038F45295A295452F4F70507FA42BBC5FE1
:1029C000A03428F4550FAA1F550FAA1FBE5FA038C8
:1029D00018F4550FAA1FB395550FAA1FEA0FF01F41
:1029E000449151E0AA27B85081F1C8F0B0FF02C06D
:1029F000440F551FB1FF04C0440F551F440F551F0E
:102A0000B2FF06C052954295142F1F70407F512B84
:102A1000B3FF1BC0A52F542F44270C942515B19547
:102A2000B0FF02C055954795B1FF04C05595479535
:102A300055954795B2FF05C05295407F4295452B6D
:102A40005F70B3FF02C0452F5527DD24CC24BB2483
:102A5000B2E0649FD018C108B00AB00B749FC018D0
:102A6000B108B00B849FB018B109659FC018B108B8
:102A7000B00B759FB018B109859FB0196A9FB01847
:102A8000B1097A9FB0194D9DA12C9924332799271C
:102A900022275D9DA00C911C301F901F201FAD9D13
:102AA000900C311D901F201F4C9DA00C911C301FBD
:102AB000901F201F5C9D900C311D901F201FAC9D0E
:102AC000300D911D201F4B9D900C311D901F201F1C
:102AD0005B9D300D911D201FAB9D900D211D4B9FC7
:102AE000300D911D201F5B9F900D211DAB9F200D70
:102AF000B1E0BB24CC24DD24639FD018C108B00A08
:102B0000B00B739FC018B108B00B839FB018B10908
:102B1000699FC018B108B00B799FB018B109899F9F
:102B2000B019629FB018B109729FB019D61AC70ABE
:102B3000B80A20F0B1E03B0F901F201F1124792F1D
:102B4000632F90E0822F0F900F900F900F900F90B7
:102B5000DF91CF911F910F91FF90EF90DF90CF9079
:102B6000BF90AF909F9008954F925F926F927F9227
:102B70008F929F92AF92BF92EF92FF920F931F930B
:102B8000CF93DF93CDE1D5E084E8E82E8DE0F82EF9
:102B90000FE417E0412C512C320143946991799153
:102BA00089919991F70181909190A190B1907F01C5
:102BB0000E945C7EA50194010E94BD7E0E9421843A
:102BC000F80161937193819391938F014616570693
:102BD0006806790610F42B013C01F5E0CD32DF07E1
:102BE000E9F66FEF7FEFCB01A30192010E944A82C9
:102BF00020935F073093600740936107509362070B
:102C0000DF91CF911F910F91FF90EF90BF90AF9008
:102C10009F908F907F906F905F904F900895CF938B
:102C2000DF9390916F00292F227091FF05C0909142
:102C30006F009D7F90936F0094E0899FA001112405
:102C4000FA01E152FB4F60817181828193812223DD
:102C500029F020916F00226020936F00EA01CC5789
:102C6000D84F0E945E7E288139814A815B810E9413
:102C7000BD7EDF91CF910895CF93DF9390916F0048
:102C8000292F227091FF05C090916F009D7F909336
:102C90006F0094E0899FA0011124FA01E65BFB4FCD
:102CA0006081718182819381222329F020916F00BC
:102CB000226020936F00EA01CC57D84F0E945E7EBD
:102CC000288139814A815B810E94BD7EDF91CF914D
:102CD0000895CF92DF92EF92FF9280911C05882396
:102CE00009F457C0C0901805D0901905E0901A0556
:102CF000F0901B0520E030E0A901C701B6010E9459
:102D0000577E882309F445C020E030E040E05FE3CF
:102D1000C701B6010E94BD7E9B01AC010E94BD7E31
:102D20002BED3FE049E450E40E94BD7E9B01AC01E5
:102D300060E070E080E89FE30E94A8836B017C0163
:102D4000C0925305D0925405E0925505F092560575
:102D500060912F0270913002072E000C880B990BA6
:102D60000E945E7E2AE037ED43E25CE30E94BD7E76
:102D7000A70196010E94BD7E60933A0270933B02C8
:102D800080933C0290933D02FF90EF90DF90CF90B4
:102D90000895C12CD12C80E8E82E8FE3F82ED0CFF7
:102DA000CF93DF93EC0188818823F1F0739A8981B6
:102DB0008823E1F0A59A809102019A819111809572
:102DC000887080930001688170E085E00E94BD0FEB
:102DD000698170E084E00E94BD0F6A8170E086E046
:102DE000DF91CF910C94BD0F7398E1CFA598E3CFFD
:102DF000CF93DF9300D0CDB7DEB78FEF89838A837F
:102E00008B83CE0101960E94D0160F900F900F90E9
:102E1000DF91CF910895CF93DF938091010465995D
:102E20005EC0816080930104909103018091010450
:102E300091FD57C0826080930104809101044B99F9
:102E400052C0846080930104809101049091000439
:102E5000981709F44AC097E09093FF038093000409
:102E600080911705882309F44DC0C0913A04C0FF32
:102E700010C08091020480FF0CC08091FE0380FF8F
:102E800008C08091FF0681608093FF0680E00E9469
:102E9000B813C1FF10C08091020481FF0CC0809163
:102EA000FE0381FF08C08091FF0682608093FF06C9
:102EB00081E00E94B813C2FF25C08091020482FF06
:102EC00021C08091FE0382FF1DC08091FF068460B7
:102ED0008093FF0682E0DF91CF910C94B8138E7F30
:102EE000A1CF8D7FA8CF8B7FADCF8091FF038823AB
:102EF00009F4B6CF81508093FF038111B1CF909335
:102F0000FE03AECFDF91CF910895CF92DF92EF9283
:102F1000FF92CF93DF93EC01C0904705D090480516
:102F2000E0904905F0904A05A701960168817981F2
:102F30008A819B810E94577E87FF04C0C882D98204
:102F4000EA82FB82C0904B05D0904C05E0904D0585
:102F5000F0904E05A70196016C817D818E819F8145
:102F60000E94577E87FF04C0CC82DD82EE82FF8202
:102F7000C0902302D0902402E0902502F090260217
:102F8000A7019601688179818A819B810E940E85C3
:102F9000181624F4C882D982EA82FB82C0902702E4
:102FA000D0902802E0902902F0902A02A701960111
:102FB0006C817D818E819F810E940E85181624F47C
:102FC000CC82DD82EE82FF82C0904F05D09050050A
:102FD000E0905105F0905205A7019601688579852A
:102FE0008A859B850E94577E87FF04C0C886D98644
:102FF000EA86FB86C0902B02D0902C02E0902D0236
:10300000F0902E02A7019601688579858A859B85B7
:103010000E940E85181624F4C886D986EA86FB8697
:10302000DF91CF91FF90EF90DF90CF9008955F9A5E
:1030300080910F058E7F80930F058A9A80910F05EE
:103040008D7F80930F05809108018095817080931A
:103050000601479A80910F058B7F80930F05129A86
:103060000895CF93DF9380E00E940F16C9EED3E05E
:10307000688379838A839B8381E00E940F166C8327
:103080007D838E839F8382E00E940F1668877987F5
:103090008A879B87DF91CF9108950F931F93CF93DA
:1030A000DF9394E0899FE00111248E01055C1A4FA3
:1030B000FE01E15DFA4FDE01A151BB4F2D913D9123
:1030C0004D915C9160817181828193810E94AE8279
:1030D000F8016083718382839383FE01EB5CFC4F74
:1030E00085919591A591B491FE01E95BFA4F80839A
:1030F0009183A283B383FE01EF5BFC4F8591959191
:10310000A591B491CD5DDD4F88839983AA83BB835C
:10311000DF91CF911F910F91089590910103E92FB5
:10312000F0E0EF58FA4F80839F5F943040F4909323
:103130000103809101078F5F80930107089510922A
:103140000103F7CF2FEB280F2A3108F042C0E22FFE
:10315000F0E08091D5049091D604A091D704B0916D
:10316000D80404C0B695A795979587952A95D2F768
:1031700080FD02C081700895E554FB4FE081EE238D
:1031800029F18091020790910307E80FF92FF11DB3
:10319000808190ED980F9A3030F08E3251F4818119
:1031A00080538A3098F4F0932E05E0932D0581E04A
:1031B00008958D3211F08B3249F4818190ED980F92
:1031C0009A3088F38E3211F48281EACFF0E0E0E0A9
:1031D000EACF80E008950E94A218882341F081E0A0
:1031E00020912D0530912E05232B09F480E00895C0
:1031F0009091C00095FFFCCF8093C6000895FF9288
:103200000F931F93CF93DF9380912507082F0270B0
:10321000182F1470982F9170F92E80FD11C0CBEDEE
:10322000DCE1FE0184912196811115C0CBE9DCE13E
:10323000FE0184912196882389F00E94F818F8CF26
:10324000002369F380E0112351F3DF91CF911F91A7
:103250000F91FF9008950E94F818E3CFF1100AC073
:10326000C9E9DCE1FE0184912196882319F00E94CE
:10327000F818F8CF01110AC0C7E9DCE1FE0184911A
:103280002196882319F00E94F818F8CF11110AC06E
:10329000C5E9DCE1FE0184912196882319F00E94A2
:1032A000F818F8CFCDE8DCE1FE018491219688235F
:1032B00019F00E94F818F8CF81E0C7CF0F931F9341
:1032C000CF93DF93162F072FEC01FE0184912196F7
:1032D000811108C0C12FD02F8991882331F00E941D
:1032E000F818FACF0E94F818F0CFDF91CF911F9114
:1032F0000F910895CF93DF93CBEDDCE1FE01849134
:103300002196882319F00E94F818F8CF60910207DF
:10331000709103078AE79CE10E945E1982E20E9495
:10332000F8188AE0DF91CF910C94F8181F93CF938F
:10333000DF93182FEB01FE018491219681110AC0C1
:10334000CFEBD8E0FE0184912196882331F00E94D2
:10335000F818F8CF0E94F818EECFCAEBD8E0112386
:1033600011F0C0EBD8E0FE0184912196882319F07A
:103370000E94F818F8CF8AE0DF91CF911F910C944A
:10338000F818CF93DF93E4EDF8E08491882349F0B7
:10339000C5EDD8E00E94F818FE01849121968111B4
:1033A000F9CF8CB1C1E085FB882780F96EEC78E01D
:1033B0008C270E949619809103018695817068EC94
:1033C00078E08C270E94961989B183FB882780F9C1
:1033D00062EC78E08C27DF91CF910C949619CF9313
:1033E000DF938F389240A1F0C1E0DDE1FE018491CE
:1033F000219681110AC0C8E7D5E0FE01849121968B
:10340000882351F00E94F818F8CF0E94F818EECFE8
:1034100080E0DF91CF91089581E0FBCFCF93DF93E0
:10342000CBE5D5E0FE0184912196882319F00E9416
:10343000F818F8CF8AE0DF91CF910C94F818CF9369
:10344000DF93C1E0DDE1FE018491219681110AC084
:10345000C3E5D3E0FE0184912196882331F00E94D8
:10346000F818F8CF0E94F818EECFDF91CF910895A9
:103470008091E7039091E8032FEF3FEF981751F009
:10348000E92FF0E0E959FC4F208130E09F5F9F7702
:103490009093E803C9010895C1E0DDE1FE01849144
:1034A000219681110AC0C1EEDCE1FE0184912196D2
:1034B000882331F00E94F818F8CF0E94F818EECF58
:1034C0000E9497130E941718FFEF2BE48DE1F15033
:1034D00020408040E1F700C00000F8949FEFE4E353
:1034E000FCE09150E040F040E1F700C000000E9495
:1034F0009713A895FECF80919D0490919E040E9401
:1035000042116093A40D7093A50D8093A60D909326
:10351000A70D8091990490919A040E9419126093CA
:103520000B0570930C0580930D0590930E05A895DF
:1035300010929F040895CF92DF92EF92FF920F9323
:103540001F93CF93DF93CDB7DEB7A0970FB6F89454
:10355000DEBF0FBECDBF611571058105910579F103
:1035600000E0C42ED12CF12CE12CA70196010E9481
:103570004A8211E0100FE1E0F0E0EC0FFD1FE00FD8
:10358000F11D07FDFA956083B901CA01012F61158C
:1035900071058105910549F7115010F1E1E0F0E066
:1035A000EC0FFD1FE10FF11D17FDFA95908187E3E8
:1035B0009A3008F480E3890F0E94F818EDCF80E379
:1035C000A0960FB6F894DEBF0FBECDBFDF91CF91AE
:1035D0001F910F91FF90EF90DF90CF900C94F8180F
:1035E000A0960FB6F894DEBF0FBECDBFDF91CF918E
:1035F0001F910F91FF90EF90DF90CF900895CF92A1
:10360000DF92EF92FF92CF93DF936A017B01EC018F
:10361000FE0184912196882319F00E94F818F8CFB2
:103620004AE0C701B601DF91CF91FF90EF90DF90A4
:10363000CF900C949B1ACF92DF92EF92FF926B0186
:103640007C01F7FE0BC08DE20E94F818F094E09424
:10365000D094C094C11CD11CE11CF11C4AE0C701EC
:10366000B601FF90EF90DF90CF900C949B1AFF92E1
:103670000F931F93CF93DF93182F062FF72E809170
:103680003102882361F1C1E0DDE1FE0184912196E0
:10369000811111C0C02FDF2DFE018491219681116F
:1036A0000DC0C2EBD5E1FE0184912196882349F03B
:1036B0000E94F818F8CF0E94F818E7CF0E94F81877
:1036C000EBCFCDEAD5E117FD15C0612F110F770BB8
:1036D000880B990B0E941B1B8AE00E94F8188091AE
:1036E0005E0481110FC01092310281E080935E046C
:1036F0000E944C1AFE0184912196882381F30E9436
:10370000F818F8CFDF91CF911F910F91FF900C9493
:1037100097132F923F924F925F926F927F928F9268
:103720009F92AF92BF92CF92DF92EF92FF920F9350
:103730001F93CF93DF9300D0CDB7DEB75C011B01A1
:103740004A01098381E090E09B838A83011102C0D2
:103750001B821A82F90140805180628073808A81C5
:103760009B81880F991F880F991F9B838A838C01E7
:1037700002571B4FA3019201F80160817181828180
:1037800093810E94577E882391F0F80140825182F4
:103790006282738211E020E030E0A901C301B2012E
:1037A0000E940E8518160CF010E0F5011083F5014B
:1037B00080818230D1F0833009F46FC0813009F00C
:1037C00046C0EA81FB81E257FB4F20813181428173
:1037D0005381F40160817181828193810E94577EBF
:1037E00087FD35C082E0F50180838A819B81825705
:1037F0009B4F9B838A83B60190E080E00E945C7EB1
:103800009B01AC01EA81FB8160817181828193819E
:103810000E94AD829B01AC01F401608171818281C3
:1038200093810E940E8587FD28C00E94EC104B01F9
:103830005C019701A8EEB3E00E949E82860E971E5F
:10384000A81EB91EF10180829182A282B3820F90DC
:103850000F900F90DF91CF911F910F91FF90EF90FC
:10386000DF90CF90BF90AF909F908F907F906F90A0
:103870005F904F903F902F9008950E94EC10F101BF
:103880000081118122813381601B710B820B930BAC
:1038900097FDDDCF83E0F5018083F98143E157E1B6
:1038A000FF3F11F446E257E16AE377E189810F9027
:1038B0000F900F90DF91CF911F910F91FF90EF909C
:1038C000DF90CF90BF90AF909F908F907F906F9040
:1038D0005F904F903F902F900C94371B4F925F92C8
:1038E0006F927F928F929F92AF92BF92CF92DF9210
:1038F000EF92FF920F931F93CF93DF93CDB7DEB775
:1039000060970FB6F894DEBF0FBECDBF80919F04C5
:10391000811117C060960FB6F894DEBF0FBECDBF01
:10392000DF91CF911F910F91FF90EF90DF90CF909B
:10393000BF90AF909F908F907F906F905F904F90CF
:1039400008950E947B1A0E94EC104B015C0160916B
:10395000A20D7091A30D072E000C880B990B0E94ED
:103960005E7E69837A838B839C8344E0C42ED12C52
:1039700058E2E52EF12C00E09E012F5F3F4F44EA14
:103980005DE063E874E087E894E00E94891BC090E2
:10399000A40DD090A50DE090A60DF090A70D60911C
:1039A000810470918204072E000C880B990B0E94F1
:1039B0005E7E9B01AC01C701B6010E940E85181600
:1039C0000CF01EC16091150270911602072E000CBA
:1039D000880B990B0E945E7E9B01AC01C701B6016A
:1039E0000E94577E87FF0CC10091A20D1091A30D7C
:1039F000B801012E000C880B990B0E945E7EA70176
:103A000096010E94AD826D837E838F83988720ED1F
:103A10003CEC4CE45DE36091570570915805809152
:103A2000590590915A050E94BD7E2B013C012091C1
:103A30007404309175044091760450917704C70165
:103A4000B6010E94AD829B01AC01C301B2010E948C
:103A5000BD7E2B013C0123E333E343E75FE3609149
:103A600070047091710480917204909173040E94AB
:103A7000BD7E9B01AC01C301B2010E94AE822B014D
:103A80003C014092700450927104609272047092F2
:103A90007304C0927404D0927504E0927604F0929C
:103AA000770420E030E040E251E46D817E818F8137
:103AB00098850E940E8518160CF453C220E030E061
:103AC00040E251EC6D817E818F8198850E94577E06
:103AD00087FD4CC2012B09F449C280916F0481110A
:103AE00049C220916B0430916C0440916D04509157
:103AF0006E0429873A874B875C8720915F05309158
:103B0000600540916105509162056D817E818F81D4
:103B100098850E94BD7E6D877E878F87988B2985CB
:103B20003A854B855C856D817E818F8198850E9469
:103B3000AE8269877A878B879C8760936B047093CA
:103B40006C0480936D0490936E0420915B0530911A
:103B50005C0540915D0550915E050E94BD7E2D85FE
:103B60003E854F8558890E94AE82A30192010E9432
:103B7000AD822B013C0120E030E04FE753E40E948E
:103B80000E8520E030E0A90118160CF0FAC16D8115
:103B90007E818F8198850E940E85181694F42D8160
:103BA0003E814F81588569857A858B859C850E94E9
:103BB000AD8260936B0470936C0480936D0490935A
:103BC0006E046FE71EC020E030E0A9016D817E81A8
:103BD0008F8198850E94577E87FF12C02D813E817C
:103BE0004F81588569857A858B859C850E94AD8239
:103BF00060936B0470936C0480936D0490936E04D7
:103C000060E06093B00480919C0D90919D0DA09117
:103C10009E0DB0919F0D0097A105B10509F1A50179
:103C20009401281B390B4A0B5B0BDA01C901B7FD64
:103C300017C06091A00D7091A10D90E080E00E94EE
:103C40005C7E9B01AC01C701B6010E94577E87FFD5
:103C500075C142EF55E164E076E180E00E94371BD8
:103C600080917D0490917E04A0917F04B0918004A6
:103C7000A5019401281B390B4A0B5B0BDA01C90122
:103C8000B7FF4BC18091880490918904A0918A0468
:103C9000B0918B040097A105B10519F1881A990A12
:103CA000AA0ABB0AB7FC1DC060918C0470918D04F8
:103CB00090E080E00E945C7E9B01AC0160910B056E
:103CC00070910C0580910D0590910E050E94577E14
:103CD00087FF37C140ED55E163EE75E18FEF0E943C
:103CE000371B6091090570910A05072E000C880B9F
:103CF000990B0E945E7E69837A838B839C8392E01A
:103D0000C92ED12C24E1E22EF12C0FEF9E012F5F62
:103D10003F4F4BE055E068E774E08CE794E00E9489
:103D2000891BC0900B05D0900C05E0900D05F0901C
:103D30000E0520E030E040EA50E4C701B6010E94E1
:103D40000E8587FDE6C020E030E046E153E4C70180
:103D5000B6010E94577E18160CF4DBC0609109056D
:103D600070910A05072E000C880B990B0E945E7E4D
:103D7000A70196010E94AD824B015C0120916C0568
:103D800030916D0540916E0550916F050E94BD7E8A
:103D900069877A878B879C872091670430916804B4
:103DA0004091690450916A04C501B4010E94AE8239
:103DB0006D837E838F839887609367047093680414
:103DC0008093690490936A04209168053091690595
:103DD00040916A0550916B050E94BD7E6D877E877C
:103DE0008F87988B20ED3CEC4CE45DE3609164059B
:103DF0007091650580916605909167050E94BD7E72
:103E00002B013C01209163043091640440916504CE
:103E100050916604C701B6010E94AD829B01AC01BE
:103E2000C301B2010E94BD7E2B013C0123E333E3B9
:103E300043E75FE360915F047091600480916104E7
:103E4000909162040E94BD7E9B01AC01C301B2014E
:103E50000E94AE822B013C0140925F0450926004AC
:103E60006092610470926204C0926304D092640410
:103E7000E0926504F09266042D853E854F85588951
:103E800069857A858B859C850E94AE82A30192010B
:103E90000E94AD826B017C0120E030E04FE753E4EB
:103EA0000E940E8520E030E0A90118160CF04CC0ED
:103EB000C501B4010E940E85181684F4A501940171
:103EC0006D817E818F8198850E94AD8260936704A9
:103ED000709368048093690490936A046FE71AC032
:103EE00020E030E0A901C501B4010E94577E87FFA0
:103EF00010C0A50194016D817E818F8198850E94FB
:103F0000AD82609367047093680480936904909312
:103F10006A0460E06093B104FDCC0E94A812D50150
:103F2000C4018C53964FAF4FBF4F80937D04909345
:103F30007E04A0937F04B0938004A4CE0E94F81066
:103F40008FCE0E94D111CDCEC701B6010E94577EFF
:103F500087FDC6CFC701B6010E941A847595679583
:103F6000D9CF81E080936F046FE74BCE81E08093DF
:103F70006F0446CE10926F0419861A861B861C8623
:103F8000BCCDC301B2010E94577E87FD1CCEC30188
:103F9000B2010E941A847595679533CE0F931F93D3
:103FA000CF93DF93EB018C01F80184910F5F1F4FDA
:103FB000882319F00E94F818F7CFBE01DD0F880B97
:103FC000990BDF91CF911F910F910C941B1BCF93F5
:103FD000DF938091E7038093E803CAE8D3E0FE0112
:103FE00084912196882319F00E94F818F8CF6091E7
:103FF000980D7091990D80919A0D90919B0D6F5F26
:104000007F4F8F4F9F4F0E941B1B8AE00E94F81822
:10401000E0910007F0E0EF58FA4F8081882321F00B
:10402000DF91CF910C940E1ADF91CF9108950F93E9
:104030001F93CF93DF93182F092FC1E0DDE1FE011D
:104040008491219681110AC0C12FD02FFE01849145
:104050002196882331F00E94F818F8CF0E94F818B2
:10406000EECF6091980D7091990D80919A0D90917D
:104070009B0D0E941B1B8AE00E94F8180E94E71FFC
:104080001092970D1092960DDF91CF911F910F9185
:104090000895FF920F931F93CF93DF93082FF92E6C
:1040A000162FC5E8D3E0FE0184912196811111C03D
:1040B000C02FDF2DFE018491219681110DC0C3E830
:1040C000D3E0FE0184912196882349F00E94F818DC
:1040D000F8CF0E94F818E7CF0E94F818EBCF612FB5
:1040E00070E090E080E00E941B1B8AE0DF91CF919E
:1040F0001F910F91FF900C94F8188F929F92AF929E
:10410000BF92CF92DF92EF92FF92CF936B017C012F
:10411000B42E20E030E0A9010E94577E87FF07C03F
:104120008DE20E94F818F7FAF094F7F8F094C0E0E6
:1041300060E070E080E09FE3CB1541F02DEC3CECBB
:104140004CEC5DE30E94BD7ECF5FF6CF9B01AC01DE
:10415000C701B6010E94AE826B017C010E942184DE
:104160004B015C014AE00E949B1ACC2391F1C501EE
:10417000B4010E945C7E9B01AC01C701B6010E94A4
:10418000AD826B017C018EE20E94F818C15008F1EB
:1041900020E030E040E251E4C701B6010E94BD7E5C
:1041A0004B015C010E941A846B01770FEE08FF0837
:1041B000C701B6010E941B1BC701B6010E945E7EAB
:1041C0009B01AC01C501B4010E94AD826B017C0171
:1041D000DDCFCF91FF90EF90DF90CF90BF90AF9069
:1041E0009F908F900895CF92DF92EF92FF92CF939E
:1041F000DF936A017B01EC01FE0184912196882303
:1042000019F00E94F818F8CF42E0C701B601DF911B
:10421000CF91FF90EF90DF90CF900C947D20FF9294
:104220000F931F93CF93DF938C01EB01F42E80E269
:104230000E94F8188FEFF81609F184E50E94F8182B
:104240008AE30E94F818F80160817181828193816C
:1042500042E00E947D20488159816A817B8180EB08
:1042600097E10E94F32062E070E080E090E0DF914F
:10427000CF911F910F91FF900C94B91082E4DECF83
:104280000F931F93CF93DF9300D000D01F921F9204
:10429000CDB7DEB76091A20D7091A30D072E000C73
:1042A000880B990B0E945E7E6D837E838F83988737
:1042B0008091A40D9091A50DA091A60DB091A70D90
:1042C00089839A83AB83BC834DEFBE016B5F7F4FC5
:1042D000CE0101960E940F216091090570910A0597
:1042E000072E000C880B990B0E945E7E6D837E83E7
:1042F0008F83988780910B0590910C05A0910D05F7
:10430000B0910E0589839A83AB83BC834FEFBE01C6
:104310006B5F7F4FCE0101960E940F2108EB17E1E2
:10432000F80184910F5F1F4F882319F00E94F8183D
:10433000F7CFE0916305F0E0E055FB4F608170E05E
:1043400090E080E00E941B1B03EB17E1F8018491D1
:104350000F5F1F4F882319F00E94F818F7CF609164
:10436000B10470E090E080E00E941B1B28960FB61D
:10437000F894DEBF0FBECDBFDF91CF911F910F919B
:1043800008952F923F924F925F926F927F928F92F9
:104390009F92AF92BF92CF92DF92EF92FF920F93D4
:1043A0001F93CF93DF93CDB7DEB7CF54D1090FB6AC
:1043B000F894DEBF0FBECDBF9B838A8369834FAF66
:1043C00029962FAF29970E94EC106C877D878E87E6
:1043D0009F87C9800CE310E0C7FC02C004E110E035
:1043E000AA81BB81CD90DD90ED90FC902896CCAE5B
:1043F000DDAEEEAEFFAE2897C980C7FE32C0C12C3D
:10440000D12CE0ECEE2EE0E4FE2ECBAEDCAEEDAE39
:10441000FEAE8C859D85AE85BF858C53964FAF4F84
:10442000BF4F80937D0490937E04A0937F04B0934C
:10443000800489818F5F63E6E62E65E1F62E823087
:10444000B0F027E735E13B832A83EA81FB81849141
:104450003196FB83EA83882309F4EFC30E94F8189E
:10446000F4CFC12CD12CE12C71E4F72ECECFF70183
:104470008491FFEFEF1AFF0A882319F00E94F818C1
:10448000F6CF0E94971329818FE72F3F09F056C17D
:104490008093B1049801A8EEB3E00E949E826BA7BE
:1044A0007CA78DA79EA76B017C012C853D854E8541
:1044B0005F85C20ED31EE41EF51ECBAADCAAEDAAB0
:1044C000FEAA81E08093320239813F3F09F039C171
:1044D00047E954E122965FAF4EAF22978DEC94E10D
:1044E00024969FAF8EAF2497CC84DD84EE84FF8426
:1044F000CAA2DBA2ECA2FDA2CFA6D8AAE9AAFAAA78
:104500001AA61FAA18AE19AE1AAE1E8A20E42F8B67
:104510003CE1388F46E4498F1A8A1B8A1C8A1D8A1F
:104520001E8E1F8E18A219A21A8E1B8E1C8E1D8E17
:10453000812C912C54015FE7C52ED12CE12CF12C5C
:10454000C886D986EA86FB86CC82DD82EE82FF822F
:104550001EA21FA218A619A621E02C962FAF2C97F9
:10456000198A188A10E0212C312C00E0CFAC0C2CD9
:10457000000CDD082B96DFAECEAE2B978091320279
:10458000882309F492C30E94EC106B017C012091F6
:104590009F042FAF222309F4ADC00E947B1A3981FA
:1045A0003111DCC01091A40D2090A50D3090A60D06
:1045B0000091A70D212F322D432D502F6A897B8921
:1045C0008C899D890E94577E87FF04C01A8B2B8A95
:1045D0003C8A0D8B212F322D432D502F6E897F89E0
:1045E000888D998D0E940E85181624F41E8B2F8AB3
:1045F000388E098F80917D0490917E04A0917F0474
:10460000B0918004A7019601281B390B4A0B5B0B64
:10461000DA01C901B7FD10C00E94A812D701C60176
:104620008C53964FAF4FBF4F80937D0490937E0481
:10463000A0937F04B0938004AA81BB814C90119613
:104640005C90119712966C90129713967C902C9612
:10465000BFAD2C97212F322D432D502FB201C30116
:10466000BB2309F43DC30E94577E87FF43C0A701C7
:1046700096018AA19BA1ACA1BDA1281B390B4A0BB5
:104680005B0B60962CAF3DAF4EAF5FAF6097DA012A
:10469000C90188589341A109B109B7FD2BC08C818C
:1046A0009D81AE81BF81288539854A855B85821BC6
:1046B000930BA40BB50BB595A79597958795398165
:1046C0003F3F09F054C08093B10460968CAD9DAD1E
:1046D000AEADBFAD60978EA39FA3A8A7B9A74A8A26
:1046E0005B8A6C8A7D8ACC86DD86EE86FF862C9678
:1046F0001FAE2C9720E030E040EA51E4AA81BB8154
:104700006D917D918D919C910E94AE82212F322DD1
:10471000432D502F0E94577E87FF4BC1EFEEF4E1EF
:10472000FB83EA83EA81FB8184913196FB83EA83F0
:10473000882309F4BAC20E94F818F4CF8093B00419
:10474000A9CEA4E8B4E12296BFAFAEAF2297EBEBBF
:10475000F4E12496FFAFEEAF2497C6CE10910B057F
:1047600020900C0530900D0500910E0523CF80930D
:10477000B004ABCF84E190E0A0E0B0E08C839D83F7
:10478000AE83BF8324E130E040E050E028873987E2
:104790004A875B87ABE5B5E1BBA3AAA3EAA1FBA16E
:1047A00084913196FBA3EAA3882341F00E94F81874
:1047B000F5CF8C819D81AE81BF81F9C26C817D81F5
:1047C0008E819F810E941B1B26E535E13BA32AA316
:1047D000EAA1FBA184913196FBA3EAA3882319F0F7
:1047E0000E94F818F5CF688579858A859B850E9497
:1047F0001B1B4E895F89688D798D8FE495E10E943E
:10480000F3204A895B896C897D8988E495E10E945F
:10481000F32028893989233031050CF492C068854A
:1048200079858A859B850E945E7E20E030E040E8A5
:1048300050E40E94BD7E4B015C012E893F89488D6A
:10484000598D6A897B898C899D890E94AD822BED67
:104850003FE049E450E40E94BD7E20E030E040E0CB
:104860005FE30E94BD7E9B01AC01C501B4010E94C3
:10487000A8834B015C01C301B2010E945E7E2FE65A
:1048800032E143E85AE30E94BD7E2B013C01B501B1
:10489000A40182E495E10E94F320B301A2018CE31C
:1048A00095E10E94F3202AE939E949E15FE3C50176
:1048B000B4010E94BD7E4B015C01AC019B010E94D2
:1048C000AE82A30192010E94A8836A8F7B8F8C8F96
:1048D0009D8FA5019401C301B2010E94BD7E20E01D
:1048E00030E040E05EE30E94BD7E6E8F7F8F88A344
:1048F00099A34CE255E15BA34AA3EAA1FBA18491F1
:104900003196FBA3EAA3882319F00E94F818F5CF8B
:10491000B501A40186E295E10E94F3204A8D5B8DEA
:104920006C8D7D8D80E295E10E94F3204E8D5F8D30
:1049300068A179A18AE195E10E94F3208AE00E94B2
:10494000F8188C819D81AE81BF81288539854A8583
:104950005B85820F931FA41FB51FB595A7959795EB
:10496000879539813F3F11F58093B1044889598972
:104970004F5F5F4F598B488BAA81BB81BC91BE8B27
:10498000EA81FB81F181FF8BAA81BB811296BC91E8
:10499000B88FEA81FB81F381F98FCAA2DBA2ECA276
:1049A000FDA22FAD2C962FAF2C97A4CE8093B004F0
:1049B000DDCFD701C6012FA538A949A95AA9821B65
:1049C000930BA40BB50BB7FD52C00E9440218AE0A7
:1049D0000E94F818D701C6018053984FAF4FBF4FC0
:1049E0008FA798ABA9ABBAAB9AA5911182C02FA99A
:1049F00038AD49AD5AAD612F722D832D902F0E9495
:104A00000E8518160CF05FC020E030E040E050E466
:104A1000612F722D832D902F0E94AE826FAB78AFE5
:104A200089AF9AAF2BA53CA54DA55EA52C0D3D1DCC
:104A30004E1D5F1D2BAB3CAB4DAB5EAB2BAD3CAD10
:104A40004DAD5EAD28966CAD7DAD8EAD9FAD28971A
:104A50000E94AD829B01AC0181E08AA7612F722D7B
:104A6000832D902F0E940E8518160CF01AA6D701E0
:104A7000C601880F991FAA1FBB1F4C855D856E85D7
:104A80007F85CAA0DBA0ECA0FDA04C0D5D1D6E1DB6
:104A90007F1D841B950BA60BB70B81389F44A24149
:104AA000B10508F442C046E654E15B834A83EA81DB
:104AB000FB8184913196FB83EA83882309F4F5C056
:104AC0000E94F818F4CFD701C6012BA93CA94DA923
:104AD0005EA9821B930BA40BB50B24964EAD5FAD64
:104AE000249760EE74E1B7FDC2CF89810E94371B25
:104AF000BECF20E030E040EA51E4AA81BB816D9155
:104B00007D918D919C910E94AD82212F322D432D5C
:104B1000502F0E940E8518160CF0A9CF22964EAD8C
:104B20005FAD22976BEA74E1E0CF2B96CEACDFACA1
:104B30002B97E888F988CE14DF040CF01FCD29E00C
:104B400034E13B832A83EA81FB8184913196FB83A4
:104B5000EA83882319F00E94F818F5CFF981FF3F06
:104B600009F085C02CEC32E03B832A836A817B818B
:104B700088EF93E10E945E19B501A40184EF93E1EF
:104B80000E94F3208AE00E94F8186A817B8183EEFC
:104B900093E10E945E194A8D5B8D6C8D7D8D8FED4A
:104BA00093E10E94F3208AE00E94F8186A817B81D9
:104BB0008EEC93E10E945E194E8D5F8D68A179A104
:104BC0008AEC93E10E94F3208AE00E94F81829966B
:104BD000CFAC2997CC2089F12CEA35EC47E25EE393
:104BE0006A8D7B8D8C8D9D8D0E94BD7E6B017C01BD
:104BF0002CEA35EC47E25EE36E8D7F8D88A199A1AA
:104C00000E94A88329812F3FB9F580926C0590926C
:104C10006D05A0926E05B0926F05C0926805D092A6
:104C20006905E0926A05F0926B05609364057093E4
:104C300065058093660590936705C15BDF4F0FB6EE
:104C4000F894DEBF0FBECDBFDF91CF911F910F91C2
:104C5000FF90EF90DF90CF90BF90AF909F908F909C
:104C60007F906F905F904F903F902F90089542EE0D
:104C700052E05B834A837ACF80925F059092600511
:104C8000A0926105B0926205C0925B05D0925C056E
:104C9000E0925D05F0925E056093570570935805AC
:104CA0008093590590935A05C8CFC15BDF4F0FB66B
:104CB000F894DEBF0FBECDBFDF91CF911F910F9152
:104CC000FF90EF90DF90CF90BF90AF909F908F902C
:104CD0007F906F905F904F903F902F900C94971320
:104CE0000E940E8518160CF005CDD701C6012C8543
:104CF0003D854E855F85821B930BA40BB50BAC01E4
:104D0000BD01485853416109710977FDF3CC4889C9
:104D10005989452B09F415CE4EA05FA068A479A44B
:104D2000480E591E6A1E7B1E2EA13FA148A559A5FB
:104D3000281B390B4A0B5B0B688579858A859B8517
:104D40000E943A82A30192010E946C828C819D8113
:104D5000AE81BF81820F931FA41FB51F84319105BF
:104D6000A105B1050CF406CD8C839D83AE83BF8372
:104D70008C3E9105A105B10544F02BEE30E040E0FA
:104D800050E02C833D834E835F8380389105A105DD
:104D9000B1050CF40ECD8EEF90E0A0E0B0E02C81D8
:104DA0003D814E815F81821B930BA40BB50B8887DD
:104DB0009987AA87BB87EECCEF92FF920F931F9340
:104DC000CF93DF93C82F0BED1CE1882399F005EA00
:104DD00018E0F80184910F5F1F4F811114C007EA9A
:104DE00016E0F80184910F5F1F4F882379F00E942D
:104DF000F818F7CFF80184910F5F1F4F882339F31C
:104E00000E94F818F7CF0E94F818E3CF8AE00E94BA
:104E1000F8188AE00E94F818C1112CC00BED1CE1B3
:104E20007801F7018491FFEFEF1AFF0A81110EC09C
:104E3000A2E9EA2EA8E0FA2EF7018491FFEFEF1A1B
:104E4000FF0A882331F00E94F818F6CF0E94F81864
:104E5000E8CF80911C05F7E8EF2EF8E0FF2E8823BD
:104E600059F18AE00E94F818F80184910F5F1F4FF2
:104E70008111F8CF409118055091190560911A05DC
:104E800070911B058EE798E00E94F3208AE00E9453
:104E9000F81880911C05811122C00BED1CE1CC2378
:104EA000A9F003E718E0F80184910F5F1F4F8823F2
:104EB000B1F00E94F818F7CFF7018491FFEFEF1AD5
:104EC000FF0A882389F20E94F818F6CFF80184912E
:104ED0000F5F1F4F882329F30E94F818F7CFC111E5
:104EE00024C00BED1CE17801F7018491FFEFEF1A6C
:104EF000FF0A81110EC0E2E6EE2EE8E0FE2EF70179
:104F00008491FFEFEF1AFF0A882331F00E94F8180E
:104F1000F6CF0E94F818E8CFF80184910F5F1F4F79
:104F2000882319F00E94F818F7CF4091840D509112
:104F3000850D6091860D7091870D8AE598E00E943D
:104F4000F3204091880D5091890D60918A0D7091E8
:104F50008B0D87E598E00E94F32040918C0D5091D5
:104F60008D0D60918E0D70918F0D84E598E00E94FB
:104F7000F3204091900D5091910D6091920D7091A0
:104F8000930D81E598E00E94F3208AE00E94F818D2
:104F9000C11124C00BED1CE17801F7018491FFEFF2
:104FA000EF1AFF0A81110EC073E3E72E78E0F72EA7
:104FB000F7018491FFEFEF1AFF0A882331F00E9476
:104FC000F818F6CF0E94F818E8CFF80184910F5F27
:104FD0001F4F882319F00E94F818F7CF40916F07F0
:104FE0005091700760917107709172078AE298E0A2
:104FF0000E94F320409173075091740760917507E8
:105000007091760787E298E00E94F320409177073D
:10501000509178076091790770917A0784E298E05F
:105020000E94F32040917B0750917C0760917D079F
:1050300070917E0781E298E00E94F3208AE00E944E
:10504000F818C11124C00BED1CE17801F70184911F
:10505000FFEFEF1AFF0A81110EC06FEFE62E67E037
:10506000F62EF7018491FFEFEF1AFF0A882331F043
:105070000E94F818F6CF0E94F818E8CFF801849142
:105080000F5F1F4F882319F00E94F818F7CF409147
:105090001D0550911E0560911F057091200586EF3A
:1050A00097E00E94FF1A40912105509122056091DE
:1050B00023057091240583EF97E00E94FF1A409129
:1050C000250550912605609127057091280580EFF0
:1050D00097E00E94FF1A4091290550912A0560919E
:1050E0002B0570912C058DEE97E00E94FF1A8AE047
:1050F0000E94F818C11124C00BED1CE17801F701E2
:105100008491FFEFEF1AFF0A81110EC053EAE52EDA
:1051100057E0F52EF7018491FFEFEF1AFF0A88237D
:1051200031F00E94F818F6CF0E94F818E8CFF80185
:1051300084910F5F1F4F882319F00E94F818F7CF52
:1051400040916707509168076091690770916A07FD
:105150008AE997E00E94F32040916B0750916C0719
:1051600060916D0770916E0787E997E00E94F320C8
:1051700040916307509164076091650770916607DD
:1051800084E997E00E94F3208AE00E94F818C11198
:1051900040C00BED1CE17801F7018491FFEFEF1A9D
:1051A000FF0A811124C04CE4E42E47E0F42EF701FD
:1051B0008491FFEFEF1AFF0A81111CC031E2E32E48
:1051C00037E0F32EF7018491FFEFEF1AFF0A811108
:1051D00014C022E1E22E27E0F22EF7018491FFEFC6
:1051E000EF1AFF0A882361F00E94F818F6CF0E9498
:1051F000F818D2CF0E94F818DACF0E94F818E2CF40
:105200008AE00E94F818F80184910F5F1F4F811106
:10521000F8CF40917F07509180076091810770918E
:10522000820789E097E00E94FF1A40919807509109
:10523000990760919A0770919B0786E097E00E941A
:10524000F3204091940750919507609196077091D3
:10525000970783E097E00E94F32040913F07509129
:105260004007609141077091420780E097E00E94FB
:10527000F320409143075091440760914507709196
:1052800046078DEF96E00E94F3204091470750912A
:1052900048076091490770914A078AEF96E00E949B
:1052A000F32040914B0750914C0760914D0770914E
:1052B0004E0787EF96E00E94F3208AE00E94F818DC
:1052C000C11124C00BED1CE17801F7018491FFEFBF
:1052D000EF1AFF0A81110EC099EEE92E96E0F92E21
:1052E000F7018491FFEFEF1AFF0A882331F00E9443
:1052F000F818F6CF0E94F818E8CFF80184910F5FF4
:105300001F4F882319F00E94F818F7CF40912F05FE
:1053100050913005609131057091320580EE96E034
:105320000E94F3204091330550913405609135057A
:10533000709136058DED96E00E94F320409137057F
:10534000509138056091390570913A058AED96E0E3
:105350000E94F3208AE00E94F818C11124C00BEDCE
:105360001CE17801F7018491FFEFEF1AFF0A811128
:105370000EC08BECE82E86E0F82EF7018491FFEF4B
:10538000EF1AFF0A882331F00E94F818F6CF0E9426
:10539000F818E8CFF80184910F5F1F4F882319F0A8
:1053A0000E94F818F7CF40915F0550916005609119
:1053B00061057091620582EC96E00E94F3202CEA70
:1053C00035EC47E25EE360915B0570915C0580918E
:1053D0005D0590915E050E94A883AB01BC018FEB37
:1053E00096E00E94F3202CEA35EC47E25EE3609100
:1053F0005705709158058091590590915A050E9462
:10540000BD7EAB01BC018CEB96E00E94F3208AE0EC
:105410000E94F818C1110AC0CBEDDCE1FE018491B5
:105420002196882319F00E94F818F8CF40916C0556
:1054300050916D0560916E0570916F0583EB96E05C
:105440000E94F3202CEA35EC47E25EE360916805A8
:105450007091690580916A0590916B050E94A883FF
:10546000AB01BC0180EB96E00E94F3202CEA35EC06
:1054700047E25EE360916405709165058091660581
:10548000909167050E94BD7EAB01BC018DEA96E05C
:105490000E94F3208AE0DF91CF911F910F91FF903E
:1054A000EF900C94F8184F925F926F927F928F92C8
:1054B0009F92AF92BF92CF92DF92EF92FF92CF93E3
:1054C000DF9320913B0530913C0540913D05509183
:1054D0003E0560911507709116078091170790910E
:1054E00018070E94AE82AB01BC0180E893E00E94E5
:1054F000F32020913F0530914005409141055091A6
:1055000042056091190770911A0780911B079091CD
:105510001C070E94AE82AB01BC018CE793E00E94A5
:10552000F320209143053091440540914505509169
:10553000460560911D0770911E0780911F0790918D
:1055400020070E94AE82AB01BC0188E793E00E9475
:10555000F320409121075091220760912307709119
:10556000240784E793E00E94F32080916F00982F36
:10557000927081FF05C080916F008D7F80936F00D6
:105580004090DF045090E0046090E1047090E204E9
:105590008090E3049090E404A090E504B090E604C9
:1055A000C090E704D090E804E090E904F090EA04A9
:1055B000992329F080916F00826080936F00CAE682
:1055C000D3E0FE0184912196882319F00E94F818F7
:1055D000F8CFC301B2010E941B1BC6E6D3E0FE0157
:1055E00084912196882319F00E94F818F8CFC501FC
:1055F000B4010E941B1BC2E6D3E0FE0184912196F8
:10560000882319F00E94F818F8CFC701B6010E944C
:105610001B1B8AE0DF91CF91FF90EF90DF90CF903E
:10562000BF90AF909F908F907F906F905F904F90C2
:105630000C94F818CF93DF930E9431188BE50E94E9
:10564000F818C9EED3E0688179818A819B8142E0B4
:105650000E947D204C815D816E817F8180E593E099
:105660000E94F320488559856A857B858DE493E007
:105670000E94F3208DE50E94F8188AE0DF91CF9117
:105680000C94F8182F923F924F925F926F927F92F4
:105690008F929F92AF92BF92CF92DF92EF92FF9242
:1056A0000F931F93CF93DF93CDB7DEB76C970FB6F1
:1056B000F894DEBF0FBECDBF8C015B015A834983D6
:1056C000FC01E95BFF4F2081318142815381298BAD
:1056D0003A8B4B8B5C8BCA01B9010E945C7E6B01DB
:1056E0007C01D5012D913D914D915C910E94BD7E33
:1056F0000E948C830E9421844B015C01E981FA8124
:105700002081318142815381C701B6010E94BD7E53
:105710000E948C830E94218489869A86AB86BC86EF
:1057200029853A854B855C8528373105410551052A
:1057300040F428E730E040E050E029873A874B8783
:105740005C876D837E838F8398874D815E816F81B7
:105750007885483751056105710540F468E770E0C8
:1057600080E090E06D837E838F839887F801ED5A07
:10577000FF4F4080518062807380C301B2010E945C
:105780005E7E69837A838B839C8369857A858B852A
:105790009C850E945C7E6D8B7E8B8F8B988F20E02A
:1057A00030E0A90169817A818B819C810E94577EBA
:1057B000882309F4E1C1A7019601C701B6010E943F
:1057C000BD7E4B015C012D893E894F89588DCA01F0
:1057D000B9010E94BD7E9B01AC01C501B4010E94CC
:1057E000AD824B015C0129813A814B815C81CA0108
:1057F000B9010E94AE829B01AC01C501B4010E94B7
:10580000A8830E948C830E9421846D877E878F8766
:10581000988B66277727CB01641975098609970944
:105820000E945E7E4B015C016D817E818F81988537
:105830000E945C7E2B013C0120E030E0A901C50103
:10584000B4010E94577E882309F49AC1A3019201F2
:10585000C301B2010E94BD7E698F7A8F8B8F9C8FAE
:10586000A7019601C701B6010E94BD7E9B01AC0154
:10587000698D7A8D8B8D9C8D0E94AD826B017C0130
:10588000A5019401C501B4010E94AE829B01AC0147
:10589000C701B6010E94A8830E945084D801959642
:1058A0008D909D90AD90BC909897750164012D8569
:1058B0003E854F855889C21AD30AE40AF50A0E9428
:1058C0002184C61AD70AE80AF90AF7FE8EC02D8984
:1058D0003E894F89588DCA01B9010E94BD7E6B0176
:1058E0007C0129813A814B815C81CA01B9010E9406
:1058F000AE82698B7A8B8B8B9C8B20E030E0A90188
:1059000069817A818B819C810E94577E882309F46A
:105910003BC1C501B4010E945C7E29893A894B894B
:105920005C890E94BD7EA70196010E94AD826D87B1
:105930007E878F87988BA3019201C301B2010E94D9
:10594000BD7E9B01AC016D857E858F8598890E9407
:10595000AE822B013C0120E030E040E850E4698158
:105960007A818B819C810E94BD7E9B01AC01C30129
:10597000B2010E94A8830E948C832B013C0120E08D
:1059800030E0A9010E940E8518161CF0412C512C04
:105990003201C301B2010E9421846D877E878F8707
:1059A000988B86169706A806B90620F48D869E86E3
:1059B000AF86B88A6D857E858F8598890E945C7ECA
:1059C00029893A894B895C890E94BD7EA70196018D
:1059D0000E94AE820E945C850E942184698B7A8B32
:1059E0008B8B9C8BC12CD12C760169897A898B8910
:1059F0009C8929853A854B855C85621B730B840BDA
:105A0000950B0E945C7E29813A814B815C810E94CA
:105A1000A88320E034E244EF59E40E94BD7E0E9456
:105A200021844B015C0169897A898B899C892D814C
:105A30003E814F815885621B730B840B950B0E942E
:105A40005C7E29813A814B815C810E94A88320E0A1
:105A500034E244EF59E40E94BD7E0E9421842B0170
:105A60003C013FE683169104A104B10408F090C004
:105A7000F401EE0FFF1FEE0FFF1FE251F74F85916C
:105A80009591A591B4918983292E3A2EBD8B4FE62D
:105A9000441651046104710408F083C0F201EE0F52
:105AA000FF1FEE0FFF1FE251F74F45915591659192
:105AB00074919A01CB014D855E856F857889D801F7
:105AC0009A964D935D936D937C939D974C0D5D1DC0
:105AD0006E1D7F1DF80146A757A760AB71ABE55B54
